:100000000C942A000C9443010C9443010C9443017A
:100010000C9443010C9443010C9443010C94430150
:100020000C9443010C9443010C9443010C94430140
:100030000C9443010C9443010C9443010C94430130
:100040000C9443010C9443010C9443010C94430120
:100050000C94430111241FBECFE5D8E0DEBFCDBF15
:0C0060000E9429010C943400F894FFCF9A
:10006C00843008F072C0683008F06FC0411138C09D
:10007C00813091F028F08230D9F0833029F1089545
:10008C002AB381E090E002C0880F991F6A95E2F7CD
:10009C00809582238ABB089527B381E090E002C04B
:1000AC00880F991F6A95E2F78095822387BB089584
:1000BC0024B381E090E002C0880F991F6A95E2F7A3
:1000CC008095822384BB089521B381E090E002C027
:1000DC00880F991F6A95E2F78095822381BB08955A
:1000EC00413099F5813089F028F08230C9F08330A5
:1000FC0011F108952AB381E090E002C0880F991F96
:10010C006A95E2F7822B8ABB089527B381E090E0D1
:10011C0002C0880F991F6A95E2F7822B87BB08955E
:10012C0024B381E090E002C0880F991F6A95E2F732
:10013C00822B84BB089521B381E090E002C0880F2C
:0C014C00991F6A95E2F7822B81BB089591
:100158008430A8F5683098F5813089F028F082302D
:10016800C9F0833011F108952BB381E090E002C00B
:10017800880F991F6A95E2F782278BBB089528B3E9
:1001880081E090E002C0880F991F6A95E2F7822704
:1001980088BB089525B381E090E002C0880F991FBD
:1001A8006A95E2F7822785BB089522B381E090E043
:1001B80002C0880F991F6A95E2F7822782BB0895CB
:1001C800843038F56130A1F4813049F028F082306C
:1001D80049F0833051F008958FEF8ABB08958FEF6F
:1001E80087BB08958FEF84BB08958FEF81BB089577
:1001F80061110FC0813041F028F0823039F083302E
:1002080039F008951ABA089517BA089514BA0895D6
:0402180011BA08957A
:10021C0040E064E081E00E94360040E065E081E06F
:10022C000E94360041E066E081E00E94360040E02A
:10023C0067E081E00E9436008DB18F7E8DB98DB163
:06024C0080648DB90895E5
:1002520061E082E00E94E4000E940E010E943F01E0
:10026200C82F813321F460E082E00E94AC00C233E7
:0C027200A9F761E082E00E94AC00F0CF30
:08027E00779BFECF8FB10895BC
:040286000C940000D4
:00000001FF
