:100000000C942A000C9430010C9430010C943001B3
:100010000C9430010C9430010C9430010C9430019C
:100020000C9430010C9430010C9430010C9430018C
:100030000C9430010C9430010C9430010C9430017C
:100040000C9430010C9430010C9430010C9430016C
:100050000C94300111241FBECFE5D8E0DEBFCDBF28
:0C0060000E940D010C943400F894FFCFB6
:10006C00843008F072C0683008F06FC0411138C09D
:10007C00813091F028F08230D9F0833029F1089545
:10008C002AB381E090E002C0880F991F6A95E2F7CD
:10009C00809582238ABB089527B381E090E002C04B
:1000AC00880F991F6A95E2F78095822387BB089584
:1000BC0024B381E090E002C0880F991F6A95E2F7A3
:1000CC008095822384BB089521B381E090E002C027
:1000DC00880F991F6A95E2F78095822381BB08955A
:1000EC00413099F5813089F028F08230C9F08330A5
:1000FC0011F108952AB381E090E002C0880F991F96
:10010C006A95E2F7822B8ABB089527B381E090E0D1
:10011C0002C0880F991F6A95E2F7822B87BB08955E
:10012C0024B381E090E002C0880F991F6A95E2F732
:10013C00822B84BB089521B381E090E002C0880F2C
:0C014C00991F6A95E2F7822B81BB089591
:10015800843038F56130A1F4813049F028F08230DC
:1001680049F0833051F008958FEF8ABB08958FEFDF
:1001780087BB08958FEF87BB08958FEF81BB0895E4
:1001880061110FC0813041F028F0823039F083309E
:1001980039F008951ABA089517BA089514BA089547
:0401A80011BA0895EB
:1001AC0081B3816081BB81B3826081BB80B5806883
:1001BC0080BD8AB188608AB98AB180618AB980B5FC
:1001CC00826080BD80B5846080BD8AB18B7F8AB926
:0801DC0010BC87E689B9089503
:1001E40041E064E081E00E94360041E065E081E0A6
:1001F4000E94360040E066E081E00E94360041E063
:1002040067E081E00E9436008DB180618DB98DB1C7
:0602140080648DB908951D
:10021A0061E080E00E94AC000E94F2000E94D600D9
:10022A000E942C01C82F0E94280187EA91E60197B3
:0E023A00F1F700C000008C2F0E942401F1CFCC
:080248008FB9779BFECF0895EA
:080250005D9BFECF8CB90895FF
:080258005F9BFECF8CB10895FD
:040260000C940000FA
:00000001FF
